:100000000C9472000C9493000C9493000C94930045
:100010000C9493000C94A8020C9483020C9493000B
:100020000C9493000C9493000C9493000C94930004
:100030000C9493000C9493000C9493000C949300F4
:100040000C9493000C9493000C9493000C949300E4
:100050000C9493000C9493000C9493000C949300D4
:100060000C9493000C9493000C9493000C949300C4
:100070000C9493000C9493000C9493000C949300B4
:100080000C9493000C9493000C9493000C949300A4
:100090000C9493000C9493000C9493000C94930094
:1000A0000C9493000C9493000C9493000C94930084
:1000B0000C9493000C9493000C9493000C94930074
:1000C0000C9493000C9493000C9493000C94930064
:1000D0000C9493000C9493000C9493000C94930054
:1000E0000C94930011241FBECFEFD1E2DEBFCDBF31
:1000F00000E00CBF12E0A0E0B2E0E2E5F2E200E0D6
:100100000BBF02C007900D92A831B107D9F714E0D8
:10011000A8E1B2E001C01D92A930B107E1F70E9449
:10012000830D0C9427110C94000086E69EE0019745
:10013000F1F700004098419880E388B9429AEFEFC8
:10014000F7E43197F1F700C000004298E6E6FEE0E0
:100150003197F1F700004098419888B9429AEFEF43
:10016000F7E43197F1F700C000004298E6E6FEE0C0
:100170003197F1F700004098419888B9429A8FEF83
:1001800097E40197F1F700C000004298E6E6FEE030
:100190003197F1F700004098419880E288B9429A7F
:1001A0008FEF97E40197F1F700C00000429808959F
:1001B00098B19F7098B998B1282F207F922B98B949
:1001C00040984198429AEFEFF7E43197F1F700C079
:1001D0000000429898B19F7098B998B18295807F3D
:1001E000892B88B940984198429A8FEF97E40197FC
:1001F000F1F700C00000429808950E94950086E63D
:100200009EE00197F1F7000088E20E94D80081E0AB
:100210000E94D80086E00E94D8008EE00E94D8009C
:1002200080E80E94D800089598B19F7098B998B15D
:10023000282F207F922B98B9409A4198429AEFEF4D
:10024000F7E43197F1F700C00000429898B19F7031
:1002500098B998B18295807F892B88B9409A419846
:10026000429A8FEF97E40197F1F700C0000042989F
:10027000089580E80E94D8000895CF93DF93EC01A1
:100280008881882331F021960E9414018991882366
:10029000D9F7DF91CF910895823079F0833018F447
:1002A0008130C9F405C0833069F08430A1F40FC0F7
:1002B000862F81580E94D8000895862F81540E946D
:1002C000D8000895862F8D560E94D8000895862F55
:1002D0008D520E94D80008950F931F93CF93DF9300
:1002E0008A01E901882311F0662319F40E9439017B
:1002F00002C00E944C01C530D10571F4C80160E113
:1003000077E20E940011CB01C0969093B7028093D0
:10031000B6020E94140103C0C430D105B9F4C8016B
:1003200068EE73E00E940011CB0170938403609328
:1003300083036AE070E00E940011C0969093060467
:10034000809305040E94140181E001C080E0C33065
:10035000D10511F08130B1F4C80164E670E00E946B
:100360000011CB0170938403609383036AE070E013
:100370000E940011C09690930204809301040E9491
:10038000140181E0C230D10511F08130B1F42AE0CE
:1003900030E0C801B9010E940011CB0170938403C1
:1003A00060938303B9010E940011C09690939A0351
:1003B000809399030E94140181E0C130D10511F0AE
:1003C000813061F4C8016AE070E00E940011C096BB
:1003D00090930404809303040E941401C630D10555
:1003E0001CF085E40E941401DF91CF911F910F91C1
:1003F00008953B9A439808956C98749A08956D985F
:10040000759A089587B1876F87B988B1807888B960
:10041000089510BA11BA10920701109208010895B8
:1004200081B18F6081B982B1807F82B9EAE0F1E069
:10043000808188618083EBE0F1E080818861808346
:1004400008950E94F9010E9402020E9409020E947E
:1004500010020E94FC010E94FF010895E1E2F1E018
:1004600010828FEF8093250191E0909324011092E8
:1004700029018093280110922B0180932A01109268
:100480002D0180932C0189EA809320018BE08083E9
:100490000895EAE7F0E0108210927B0080E28093FA
:1004A0007C0080E880BF86E880830895883018F05B
:1004B00098E090937B008770806280937C00EAE7ED
:1004C000F0E0808180648083808184FFFDCF809113
:1004D0007900EAE7F0E090819061908310927B00D0
:1004E0000895F894EAE6F0E0808182608083EC9AD7
:1004F00078940895F894EAE6F0E08081886080833B
:10050000ED9A789408951F920F920FB60F921124CE
:100510008F939F93AF93BF938091A0029091A1027C
:10052000A091A202B091A3020196A11DB11D8093DA
:10053000A0029093A102A093A202B093A302BF9144
:10054000AF919F918F910F900FBE0F901F901895B4
:100550001F920F920FB60F9211248F939F93AF9318
:10056000BF938091A4029091A502A091A602B091A0
:10057000A7020196A11DB11D8093A4029093A5022C
:10058000A093A602B093A702BF91AF919F918F91C4
:100590000F900FBE0F901F901895E2E0F1E0808160
:1005A000877F80830895E2E0F1E080818860808326
:1005B00008950F931F93CF93BC0180E090E00E94B9
:1005C000661028E431EE42E850E40E94D20F0E9407
:1005D0003A10DC01CB01A0E0B0E01092A002109232
:1005E000A1021092A2021092A3021092A4021092F1
:1005F000A5021092A6021092A702F1E0C0E040917D
:10060000A0025091A1026091A2027091A3020091F8
:10061000A4021091A5022091A6023091A702EF2F0B
:10062000481759076A077B0708F4EC2FEE2349F4B3
:100630004F2F081719072A073B0708F44C2F4423AC
:10064000F1F20E94A703CF911F910F910895BC0171
:1006500080E090E00E94661025EE30ED4AEA50E41A
:100660000E94D20F0E943A10462F572F682F792FE1
:100670001092A0021092A1021092A2021092A30264
:100680008091A0029091A102A091A202B091A30238
:10069000481759076A077B0798F70E94A703089530
:1006A000CF93DF93EC010E94AB03CE010E9427039E
:1006B000DF91CF910895CF93DF93EC010E949B03CC
:1006C000CE010E942703DF91CF910895CF93DF934E
:1006D000EC010E949F03CE010E94D902DF91CF91CD
:1006E0000895CF93DF93EC010E94A303CE010E94F3
:1006F000D902DF91CF910895CF93DF93D82FC62FE2
:10070000842F0E945602482F809392038D2F6C2FC6
:1007100050E023E030E00E946C01DF91CF9108951A
:100720008093280160932A01089592B1907F8F7081
:10073000982B92B9089589E00E94950308958AE064
:100740000E949503089585E00E949503089580E036
:100750000E949503089586E00E949503089586B14E
:10076000886088B9089586B1877F88B90895F8941C
:100770000E9421020E9449020E942E020E947102E0
:100780000E947A02789408950E949F0380E062E3B9
:100790000E94900308951F93CF93DF93C82F64E6C0
:1007A0000E94F410D82F482F50E02CE93FEF429FD1
:1007B000C001439F900D529F900D11248C0F911DED
:1007C0006AE070E00E941411162F8D2F805D0E9448
:1007D0001401812F805D0E941401C05D8CE9D89FB7
:1007E000D02D11248C2F8D0F110F912F990F990F50
:1007F000190F811B0E941401DF91CF911F91089561
:100800006F927F928F929F92AF92BF92CF92DF9220
:10081000EF92FF921F93CF93DF938FEF80930401AA
:10082000109205010E94B703CC24DD24EE24FF249E
:10083000AA24BB246894A1F888249924839466246C
:10084000772483E00E94560280939E0282E00E94F9
:10085000560280939D0281E00E945602C82F809329
:100860009C02D0919D0210919E0281E061E043E0E4
:100870000E947C0381E065E042E00E947C0381E00D
:1008800069E041E00E947C03D03510F1C03500F1F1
:10089000103508F43FC00E94A7038FEF9FEFACE232
:1008A00081509040A040E1F700C000008FE090E050
:1008B0000E945003DF91CF911F91FF90EF90DF9046
:1008C000CF90BF90AF909F908F907F906F90089542
:1008D0001035E8F0D03508F482C0C035E8F584E082
:1008E00090E00E9471030E94AB0388EC68EC0E94C8
:1008F0009003740131C089E090E00E9471030E946E
:10090000AB0388EC68EC0E949003740125C0D035DD
:1009100008F469C0C03508F45EC084E090E00E942D
:1009200066030E94AB0388EC68EC0E94900375019B
:1009300052C00E94AB0388EC68EC0E9490030CC08C
:1009400089E090E00E9466030E94AB0388EC68ECAB
:100950000E94900375010BC0C03530F4103508F0CB
:1009600070CFD03538F06DCFD03508F06ACF103564
:1009700008F467CF91E0E916F10461F484E090E0B7
:100980000E9466030E94AB0388EC68EC0E9490030F
:10099000730157CFA2E0EA16F10461F484E090E01D
:1009A0000E9471030E94AB0388EC68EC0E949003E4
:1009B000730147CFB8E0CB16D10444F485E090E052
:1009C0000E9466030894C11CD11C3BCF85E090E0D7
:1009D0000E94710336CFC03508F0BECFAACFC03514
:1009E00008F0BACF88CFC03508F4B8CFA9CFCF93DD
:1009F000DF93EC010E94B7038091120290911302E1
:100A00008C179D0719F40E94000423C080911002E6
:100A1000909111028C179D0759F489E190E00E9492
:100A2000500388E590E00E9471030E94000411C009
:100A300080910C0290910D028C179D0751F489E171
:100A400090E00E94500388E590E00E9466030E94B7
:100A5000000480911202909113029093810380937D
:100A60008003DF91CF910895CF93DF93EC010E9433
:100A7000B70380910E0290910F028C179D0719F415
:100A80000E94000423C080911002909111028C17E3
:100A90009D0759F489E190E00E94500388E590E0B9
:100AA0000E9466030E94000411C080910C02909184
:100AB0000D028C179D0751F489E190E00E945003CC
:100AC00088E590E00E9471030E94000480910E026C
:100AD00090910F029093810380938003DF91CF91D7
:100AE0000895CF93DF93EC010E94B70380910C022D
:100AF00090910D028C179D0719F40E94000423C0E9
:100B000080911202909113028C179D0759F489E18C
:100B100090E00E94500388E590E00E9471030E94DB
:100B2000000411C080910E0290910F028C179D0756
:100B300051F489E190E00E94500388E590E00E9422
:100B400066030E94000480910C0290910D02909324
:100B5000810380938003DF91CF910895CF93DF933A
:100B6000EC010E94B70380911002909111028C1742
:100B70009D0719F40E94000423C0809112029091F5
:100B800013028C179D0759F489E190E00E945003ED
:100B900088E590E00E9466030E94000411C08091E5
:100BA0000E0290910F028C179D0751F489E190E09D
:100BB0000E94500388E590E00E9471030E940004A7
:100BC0008091100290911102909381038093800391
:100BD000DF91CF9108959C012C5030402530310594
:100BE000C0F41092AB021092AA029C012F5F3F4FFB
:100BF0003093A9022093A8029C01215030403093E9
:100C00009503209394030A969093AF028093AE02CB
:100C100008959C012854304025303105C0F49C01D2
:100C20002A5030403093AB022093AA029C012F5FE0
:100C30003F4F3093A9022093A80201979093950308
:100C4000809394031092AF021092AE020895853102
:100C5000910561F08F31910549F08932910531F0AC
:100C60008333910519F08D339105C1F49C012A500D
:100C700030403093AB022093AA029C012F5F3F4F7C
:100C80003093A9022093A802109295031092940326
:100C90000A969093AF028093AE0208958B3191052E
:100CA00061F08532910549F08F32910531F0893339
:100CB000910519F083349105C1F49C012A5030400C
:100CC0003093AB022093AA021092A9021092A802BC
:100CD0009C012150304030939503209394030A9651
:100CE0009093AF028093AE0208958B30910559F036
:100CF00081319105E9F08734910579F18D349105C1
:100D000009F055C03FC01092AB021092AA02109297
:100D10009503109294038CE090E09093A902809345
:100D2000A80285E190E09093AF028093AE0208950F
:100D30001092AB021092AA0280E190E0909395038A
:100D4000809394031092A9021092A8028BE190E084
:100D50009093AF028093AE0208958DE390E090935C
:100D6000AB028093AA02109295031092940388E438
:100D700090E09093A9028093A8021092AF02109283
:100D8000AE02089583E490E09093AB028093AA02B0
:100D90008CE490E090939503809394031092A902C1
:100DA0001092A8021092AF021092AE0208959C0118
:100DB0002A5030403093AB022093AA029C012F5F4F
:100DC0003F4F3093A9022093A8029C01215030404C
:100DD00030939503209394030A969093AF028093E7
:100DE000AE020895CF92DF92EF92FF920F931F937E
:100DF000CF93DF939B018617970709F449C0EAE078
:100E0000F0E0BF010E9414117B018C01C901BF01F8
:100E10000E941411EB016C016E157F056CF480913A
:100E20008003909181030E94F7040894E108F1087F
:100E3000CE15DF05A1F70FC0E616F70664F4809122
:100E40008003909181030E9434050894E11CF11CF9
:100E5000CE15DF05A1F7C016D10664F4809180039A
:100E6000909181030E94710501501040C016D10677
:100E7000A9F70EC00C151D055CF4809180039091BC
:100E800081030E94AE050F5F1F4FC016D106A9F760
:100E9000DF91CF911F910F91FF90EF90DF90CF9056
:100EA0000895DC0160910602709107027723ECF04F
:100EB0008091B8029091B9028A179B07C9F04CEB58
:100EC00052E020E030E009C04C5F5F4FFA013497F8
:100ED000808191818A179B0771F02F5F3F4F6217C6
:100EE000730794F720E030E008C020E030E005C050
:100EF00021E030E002C021E030E081E090E0211507
:100F0000310511F480E090E008950F931F93CF9383
:100F1000DF930E94B7030E94A7038FEF9FEFACE21D
:100F200081509040A040E1F700C0000084E00E94A2
:100F300056028093930386E00E94560280939C039E
:100F400088E00E945602C82F80939B038091800303
:100F50009091810320911002309111028217930722
:100F600009F09EC080919303863988F50091AA020A
:100F70001091AB020115110551F1C8010E945107F2
:100F8000009709F07AC2E0910602F09107023196CB
:100F9000F0930702E0930602EE0FFF1FEE0FFF1F14
:100FA000E854FD4F1183008313821282809108025E
:100FB0009091090201969093090280930802FC0126
:100FC000EE0FFF1FEB57FC4F1183008356C2809139
:100FD0009C03863988F50091A8021091A902011599
:100FE000110551F1C8010E945107009709F045C24F
:100FF000E0910602F09107023196F0930702E09328
:101000000602EE0FFF1FEE0FFF1FE854FD4F118386
:101010000083138212828091080290910902019646
:101020009093090280930802FC01EE0FFF1FEB571B
:10103000FC4F1183008321C2C93908F01EC2C09140
:10104000AE02D091AF02209709F417C2CE010E94E0
:101050005107009709F011C2E0910602F0910702D2
:101060003196F0930702E0930602EE0FFF1FEE0F9A
:10107000FF1FE854FD4FD183C083138212828091F9
:101080000802909109020196909309028093080248
:10109000FC01EE0FFF1FEB57FC4FD183C083EDC166
:1010A00020910E0230910F028217930709F09EC023
:1010B00080919303863988F50091A8021091A902C6
:1010C0000115110551F1C8010E945107009729F53A
:1010D00080910602909107020196909307028093F7
:1010E0000602FC01EE0FFF1FEE0FFF1FE854FD4F3D
:1010F0001183008313821282809108029091090269
:1011000001969093090280930802FC01EE0FFF1FE5
:10111000EB57FC4F11830083B0C180919C0386394B
:1011200088F50091AE021091AF020115110551F141
:10113000C8010E945107009729F5809106029091FD
:10114000070201969093070280930602FC01EE0FBE
:10115000FF1FEE0FFF1FE854FD4F11830083138222
:1011600012828091080290910902019690930902DF
:1011700080930802FC01EE0FFF1FEB57FC4F118319
:1011800000837BC1C93908F078C1C0919403D09124
:101190009503209709F471C1CE010E945107009771
:1011A00009F06BC1E0910602F09107023196F093CD
:1011B0000702E0930602EE0FFF1FEE0FFF1FE85439
:1011C000FD4FD183C08313821282809108029091D7
:1011D000090201969093090280930802FC01EE0F28
:1011E000FF1FEB57FC4FD183C08347C120910C02F6
:1011F00030910D028217930709F09DC080919303EF
:10120000863988F50091AE021091AF0201151105E3
:1012100051F1C8010E945107009729F580910602FB
:101220009091070201969093070280930602FC01B9
:10123000EE0FFF1FEE0FFF1FE854FD4F11830083D9
:101240001382128280910802909109020196909374
:10125000090280930802FC01EE0FFF1FEB57FC4FC1
:10126000118300830AC180919C03863978F500912F
:101270009403109195030115110541F1C8010E94D5
:101280005107009719F58091060290910702019687
:101290009093070280930602FC01EE0FFF1FEE0FF2
:1012A000FF1FE854FD4F1183008380910802909145
:1012B000090201969093090280930802FC01EE0F47
:1012C000FF1FEB57FC4F11830083D7C0C93908F0CB
:1012D000D4C0C091AA02D091AB02209709F4CDC02E
:1012E000CE010E945107009709F0C7C08091060205
:1012F0009091070201969093070280930602FC01E9
:10130000EE0FFF1FEE0FFF1FE854FD4FD183C08388
:1013100013821282809108029091090201969093A3
:10132000090280930802FC01EE0FFF1FEB57FC4FF0
:10133000D183C083A2C02091120230911302821780
:10134000930709F09AC080919303863988F500913C
:101350009403109195030115110551F1C8010E94E4
:101360005107009729F58091060290910702019696
:101370009093070280930602FC01EE0FFF1FEE0F11
:10138000FF1FE854FD4F1183008313821282809166
:101390000802909109020196909309028093080235
:1013A000FC01EE0FFF1FEB57FC4F1183008365C05C
:1013B00080919C03863988F50091AA021091AB02B6
:1013C0000115110551F1C8010E945107009729F537
:1013D00080910602909107020196909307028093F4
:1013E0000602FC01EE0FFF1FEE0FFF1FE854FD4F3A
:1013F0001183008313821282809108029091090266
:1014000001969093090280930802FC01EE0FFF1FE2
:10141000EB57FC4F1183008330C0C93970F5C09180
:10142000A802D091A902209741F1CE010E94510754
:10143000009719F5E0910602F09107023196F093BA
:101440000702E0930602EE0FFF1FEE0FFF1FE854A6
:10145000FD4FD183C0831382128280910802909144
:10146000090201969093090280930802FC01EE0F95
:10147000FF1FEB57FC4FD183C083DF91CF911F91AA
:101480000F91089580918003909181032091100223
:10149000309111028217930749F480910C029091C8
:1014A0000D029093810380938003089540910C0274
:1014B00050910D028417950729F4309381032093EE
:1014C000800308952091120230911302821793072E
:1014D00049F480910E0290910F02909381038093C2
:1014E0008003089540910E0250910F0284179507D2
:1014F00021F430938103209380030895EF92FF92AB
:101500000F931F93CF93DF9380EC0E94D8008091BC
:1015100014020E94CB0380911402909115020E9444
:10152000EB05409106025091070255230CF468C068
:101530006091A8027091A902C091AA02D091AB0259
:101540000091AE021091AF02E0909403F0909503E9
:10155000CA01880F991F880F991FFC01E854FD4F9D
:10156000DF01208131812617370761F48281938161
:101570008130910539F481E090E09093B502809339
:10158000B40240C02C173D0771F412968D919C91C6
:1015900013978130910539F481E090E09093AD028A
:1015A0008093AC022FC02017310771F412968D91F1
:1015B0009C9113978130910539F481E090E09093EC
:1015C0000804809307041EC02E153F0571F412967F
:1015D0008D919C9113978130910539F481E090E0D1
:1015E00090939703809396030DC0415050403497D9
:1015F0008FEF4F3F580709F0B3CF40E050E002C0F3
:1016000040E050E0842F952FDF91CF911F910F91F3
:10161000FF90EF9008958091980290919902813007
:10162000910561F48FE090E00E94500383EB90E01D
:101630000E9466030E94420A0E9400040895BC01B1
:1016400040910A0250910B025523CCF080919D03EA
:1016500090919E0386179707A9F0EFE9F3E020E049
:1016600030E005C0819191918617970769F02F5F4F
:101670003F4F42175307B4F720E030E005C020E0A9
:1016800030E002C020E030E0822F932F08958F9247
:101690009F92AF92BF92CF92DF92EF92FF920F9301
:1016A0001F93CF93DF930E94FD00809108029091D9
:1016B000090299230CF487C00F2EF5E8CF2EF3E032
:1016C000DF2EF02D00E010E0EE24FF240F2EFAE0D4
:1016D000AF2EBB24F02D88249924D6018D919D91A5
:1016E0006D01B5010E941411C62FD82F03301105CA
:1016F00004F5B7016F5F7F4F81E00E944C018C2F92
:10170000805D0E941401B7016E5F7F4F81E00E94EF
:101710004C018D2F805C0E941401E3E0F0E0EE0E9E
:10172000FF1E81E06E2D0E944C0180E20E94140198
:1017300023C00330110509F47401B7016F5F7F4FB7
:1017400082E00E944C018C2F805D0E941401B70141
:101750006E5F7F4F82E00E944C018D2F805C0E9463
:10176000140183E090E0E80EF91E82E06E2D0E94E5
:101770004C0180E20E9414010F5F1F4FC0910802CC
:10178000D0910902C017D1070CF0A7CFDD23DCF000
:101790000E94AF038FEF9FE7A6E181509040A040E9
:1017A000E1F700C000000E94B3038FEF9FE7A6E1BE
:1017B00081509040A040E1F700C0000021979FEFCA
:1017C000CF3FD90729F7DF91CF911F910F91FF905C
:1017D000EF90DF90CF90BF90AF909F908F90089543
:1017E0006F927F928F929F92AF92BF92CF92DF9231
:1017F000EF92FF920F931F93CF93DF930E94FD0010
:101800000F2EFAE0EF2EFF24F02DCC24DD24C3941C
:10181000AA24BB24A3941AC0C701800F911F0E9461
:101820001F0B009711F0B982A8820F5F1F4F2296FD
:101830000830110589F70894C11CD11C8AE090E09A
:10184000E80EF91E98E0C916D10459F0E601C295D8
:10185000D295D07FDC27C07FDC27C65EDD4F8501B7
:10186000DBCFE0910A02F0910B02EE0FFF1FE3566F
:10187000FC4FC081C180C0931402C09215028C2F0E
:101880000E94CB038FEF9FEFACE281509040A040CD
:10189000E1F700C000008C2F9C2D6AE070E00E94F0
:1018A00014118B017C017C2E6C2C0F2EF8E1CF2EB5
:1018B000F2E0DF2EF02D0FC1E7012196F801EE0FC7
:1018C000FF1FEE0FFF1FEE0FFF1FEC0FFD1FEE0FB0
:1018D000FF1FEC0DFD1D808191818130910541F547
:1018E000C801880F991F4801880C991C880C991C05
:1018F000880C991C880D991D8E0D9F1D5C01089404
:10190000A11CB11C872D962DB5010E94F206B09244
:101910001502A0921402F401EE0DFF1DEE0FFF1F41
:10192000EC0DFD1D118210827E017A2C6B2CB9C04A
:10193000E8012196FE01EE0FFF1FEE0FFF1FEE0FD5
:10194000FF1FEE0DFF1DEE0FFF1FEC0DFD1D808133
:1019500091818130910559F5CE01880F991F9E0123
:10196000220F331F220F331F220F331F820F931FAB
:101970005C01AE0CBF1C872D962DB5010E94F206AE
:10198000B0921502A0921402000F111F000F111F38
:10199000000F111F0E0D1F1DF801EE0FFF1FEC0DA4
:1019A000FD1D118210828E017A2C6B2C7AC0F801F9
:1019B000EE0FFF1FEE0FFF1FEE0FFF1FEE0DFF1DBF
:1019C0003197EE0FFF1FEC0DFD1D8081918181305D
:1019D000910541F5C801880F991F5801AA0CBB1C3D
:1019E000AA0CBB1CAA0CBB1C8A0D9B1D8E0D9F1D37
:1019F000EC012197872D962DBE010E94F206D0930F
:101A00001502C0931402F501EE0DFF1DEE0FFF1F2E
:101A1000EC0DFD1D118210820894E108F1087C2E66
:101A20006D2E3FC0980121503040F901EE0FFF1F8D
:101A3000EE0FFF1FEE0FFF1FEE0DFF1DEE0FFF1F3E
:101A4000EC0DFD1D808191818130910551F5C90119
:101A5000880F991F220F331F220F331F220F331FAE
:101A6000280F391FE901CE0DDF1D872D962DBE01F0
:101A70000E94F206D0931502C0931402F801EE0FF3
:101A8000FF1FEE0FFF1FEE0FFF1FEE0DFF1DEE0FEE
:101A9000FF1FEC0DFD1D11821082015010407C2EA5
:101AA0006D2E0E94A7030E94FD0081E061E00E946C
:101AB0004C01802F805D0E94140182E061E00E9451
:101AC0004C018E2D805D0E9414010E94AB0388ECB6
:101AD00068EC0E949003073011050CF4EDCE97E0FE
:101AE000E916F1040CF4E8CEDF91CF911F910F912C
:101AF000FF90EF90DF90CF90BF90AF909F908F902E
:101B00007F906F9008954F925F926F927F928F9225
:101B10009F92AF92BF92CF92DF92EF92FF920F937C
:101B20001F93CF93DF930E94B7030E9495000E94FA
:101B3000FD00809110029091110290938103809397
:101B4000800380E092E00E943D018FEF9FEFACE2C6
:101B500081509040A040E1F700C000000E94FD00CD
:101B60000F2EFDE9AF2EF3E0BF2EF02D0F2EF8EB78
:101B7000EF2EF2E0FF2EF02D88249924689481F84E
:101B8000662477246394442455240230110599F582
:101B900080919A0290919B02209106023091070257
:101BA0008217930709F0EFC00E947E0A009719F58B
:101BB0000E940B0BC0911402D0911502CE010E941D
:101BC0001F0B0197880F991F8A0D9B1DDC01CD907B
:101BD000DC90119780919802909199028230910542
:101BE00024F0CE01B6010E94F206D0921502C092F6
:101BF00014028301B4C180919A0290919B022091BA
:101C00000602309107028217930709F0BCC00E94B8
:101C10007E0A181619060CF0B6C0101611060CF044
:101C2000B2C080919802909199021816190624F476
:101C3000509299024092980280911402909115025C
:101C40000E94EB058091B4029091B502813091051C
:101C500001F5C090A802D090A9020E947E0A880FC8
:101C6000991F880F991F8E0D9F1DFC0113821282F0
:101C70008091140290911502B6010E94F206D09252
:101C80001502C09214025092B5024092B402820131
:101C900066C180910704909108048130910511F587
:101CA000C090AE02D090AF020E947E0A880F991FAA
:101CB000880F991F8E0D9F1DDC0113961C921E929A
:101CC00012978091140290911502B6010E94F206BB
:101CD000D0921502C0921402509208044092070458
:101CE00082013DC1809196039091970381309105C7
:101CF00001F5C0909403D09095030E947E0A880F4E
:101D0000991F880F991F8E0D9F1DFC01138212824F
:101D10008091140290911502B6010E94F206D092B1
:101D20001502C092140250929703409296038201CA
:101D300016C18091AC029091AD028130910509F0FD
:101D40000DC1C090AA02D090AB020E947E0A880FFB
:101D5000991F880F991F8E0D9F1DDC0113961C92F1
:101D60001E9212978091140290911502B6010E9462
:101D7000F206D0921502C09214025092AD02409227
:101D8000AC028201ECC080911402909115020E9475
:101D9000EB050E94CD020E9485070E94D30280912C
:101DA0000A0290910B02019690930B0280930A0213
:101DB000880F991F8A0D9B1D2091140230911502E6
:101DC000FC0131832083809198029091990218162A
:101DD000190614F410929F02C091AA02D091AB028E
:101DE0002097C9F0CE010E9451070097A1F480917D
:101DF00006029091070201969093070280930602D3
:101E0000FC01EE0FFF1FEE0FFF1FEE0DFF1DD18334
:101E1000C08373826282C0919403D091950320970E
:101E2000C9F0CE010E9451070097A1F480910602EB
:101E30009091070201969093070280930602FC019D
:101E4000EE0FFF1FEE0FFF1FEE0DFF1DD183C083AE
:101E500073826282C091AE02D091AF022097C9F026
:101E6000CE010E9451070097A1F480910602909143
:101E7000070201969093070280930602FC01EE0F81
:101E8000FF1FEE0FFF1FEE0DFF1DD183C083738276
:101E90006282C091A802D091A9022097C9F0CE0118
:101EA0000E9451070097A1F48091060290910702C9
:101EB00001969093070280930602FC01EE0FFF1F2C
:101EC000EE0FFF1FEE0DFF1DD183C0837382628270
:101ED0002091060230910702C901880F991F880FCF
:101EE000991F8E0D9F1DDC0112968D919C91139769
:101EF0008130910521F4FD01C080D1800AC080911C
:101F00009802909199020196909399028093980279
:101F1000840180910A0290910B02880F991F8A0D0B
:101F20009B1DDC018D919C91B6010E94F206D0921E
:101F30001502C09214022091060230910702C901D5
:101F4000880F991F880F991F8E0D9F1DFC0113820A
:101F5000128230939B0220939A0201C082018091E9
:101F60000A0290910B028D3291050CF40ECE0E9464
:101F7000A7030E94F00B0E94A7030E94470B80E07A
:101F800090E0DF91CF911F910F91FF90EF90DF9044
:101F9000CF90BF90AF909F908F907F906F905F9009
:101FA0004F9008950CD0E6C0DED040F0D5D030F090
:101FB00021F45F3F19F0C7C0511110C1CAC0EBD066
:101FC00098F39923C9F35523B1F3951B550BBB2700
:101FD000AA2762177307840738F09F5F5F4F220FAD
:101FE000331F441FAA1FA9F333D00E2E3AF0E0E8A6
:101FF00030D091505040E695001CCAF729D0FE2FF2
:1020000027D0660F771F881FBB1F26173707480783
:10201000AB07B0E809F0BB0B802DBF01FF27935839
:102020005F4F2AF09E3F510568F08DC0D7C05F3FDB
:10203000ECF3983EDCF3869577956795B795F79521
:102040009F5FC9F7880F911D9695879597F9089519
:10205000E1E0660F771F881FBB1F621773078407B5
:10206000BA0720F0621B730B840BBA0BEE1F88F7C4
:10207000E095089598D088F09F5790F0B92F992750
:10208000B751A0F0D1F0660F771F881F991F1AF083
:10209000BA95C9F712C0B13081F09FD0B1E0089570
:1020A0009CC0672F782F8827B85F39F0B93FCCF3F1
:1020B000869577956795B395D9F73EF49095809579
:1020C000709561957F4F8F4F9F4F0895E89409C099
:1020D00097FB3EF490958095709561957F4F8F4F5B
:1020E0009F4F9923A9F0F92F96E9BB279395F69571
:1020F000879577956795B795F111F8CFFAF4BB0FEF
:1021000011F460FF1BC06F5F7F4F8F4F9F4F16C052
:10211000882311F096E911C0772321F09EE8872FDC
:10212000762F05C0662371F096E8862F70E060E098
:102130002AF09A95660F771F881FDAF7880F969511
:10214000879597F9089597F99F6780E870E060E0B8
:1021500008959FEF80EC089500240A941616170640
:1021600018060906089500240A9412161306140688
:1021700005060895092E0394000C11F4882352F0EB
:10218000BB0F40F4BF2B11F460FF04C06F5F7F4FA3
:102190008F4F9F4F089557FD9058440F551F59F08A
:1021A0005F3F71F04795880F97FB991F61F09F3F44
:1021B00079F087950895121613061406551FF2CF6D
:1021C0004695F1DF08C0161617061806991FF1CFBD
:1021D00086957105610508940895E894BB276627E4
:1021E0007727CB0197F90895991B79E004C0991FCF
:1021F000961708F0961B881F7A95C9F78095089561
:10220000AA1BBB1B51E107C0AA1FBB1FA617B7071C
:1022100010F0A61BB70B881F991F5A95A9F7809538
:102220009095BC01CD01089597FB092E07260AD091
:1022300077FD04D0E5DF06D000201AF47095619593
:102240007F4F0895F6F7909581959F4F0895F894E4
:02225000FFCFBE
:10225200535441525400FFFFFFFFFFFF04000300ED
:08226200020001000B00640002
:00000001FF
